:100000000C9457020C94C40D0C949E020C949E0206
:100010000C949E020C949E020C949E020C949E02E0
:100020000C949E020C949E020C9420220C94F222BA
:100030000C94551B0C949E020C949E020C949E02F0
:100040000C949E020C949E020C949E020C949E02B0
:100050000C949E020C94BD1B0C949E020C949E0268
:100060000C949E020C949E020C949E020C949E0290
:100070000C949E020C949E020C949E020C949E0280
:100080000C949E020C949E020C949E020C949E0270
:100090000C949E020C949E020C949E020C949E0260
:1000A0000C949E020C949E020C949E029E04A0044A
:1000B000AB04A204A404A604A804AA04AD04AF04DB
:1000C000B104BC04B304B504B704B904BB04BE0452
:1000D00075117511A711A711E7115813581358136B
:1000E00007125813B412B41224132D1358135113BA
:1000F000C112C112C112C112C112C112C112C11268
:10010000C112C112C112C112C112C112C112C11257
:10011000D012DE12E512EC12F612E313E313F5131C
:10012000F513EC13F513F513F513E313E313F113C0
:10013000F513F513F1135F2386237824862378249F
:10014000D223F52378244B245A242B001E001F00B1
:10015000200021002200E10014001A000800150010
:100160001700E00004001600070009000A00E20082
:100170001D001B0006001900050000000000000023
:100180000258E3002C002A00270026002500240046
:1001900023002F00130012000C0018001C00280080
:1001A00033000F000E000D000B0030003800370048
:1001B000360010001100000000000000E5000158AA
:1001C0002C0029001E021F022002210222023500FB
:1001D00000001A00000000000000000004001600EB
:1001E000070000000000E000000000000000000028
:1001F0000000000000000000E200E3002C002D02DF
:1002000056002E0025022402230231003400000093
:10021000000000000000000000000000520000008C
:100220000000000000004F005100500000000000DE
:1002300000000000E50001002C00000000000000AC
:1002400000000000000000000000000000000000AE
:10025000000000000000000000000000000000009E
:10026000000000000000000000000000000000008E
:10027000000000000000000000000000000000007E
:10028000000000000000000000000000000000006E
:10029000000000000000000000000000000000005E
:1002A000000000000000000000000000010000004D
:1002B0000000000000000001010101010101010135
:1002C0000202020202020202020303030303030307
:1002D00003040404040404050505050506060606D2
:1002E0000607070707080808080909090A0A0A0A89
:1002F0000B0B0B0C0C0C0D0D0D0E0E0F0F0F101029
:1003000011111112121313141415151616171718AC
:100310001819191A1A1B1C1C1D1D1E1F1F20202115
:1003200022222324252526272728292A2B2B2C2D5A
:100330002E2F2F30313233343536363738393A3B79
:100340003C3D3E3F4041424344464748494A4B4C6E
:100350004D4F50515253555657585A5B5C5E5F6033
:100360006263646667696A6C6D6E707173747678C7
:10037000797B7C7E8081838486888A8B8D8F919225
:100380009496989A9B9D9FA1A3A5A7A9ABADAFB149
:10039000B3B5B7B9BBBDBFC1C4C6C8CACCCFD1D332
:1003A000D6D8DADCDFE1E4E6E8EBEDF0F2F5F7FAD7
:1003B000FCFF0403300000001C03490072006900C8
:1003C000730020004B006500790062006F0061003F
:1003D0007200640000000E034B00650065006200BF
:1003E00069006F0000000403090409023B000201D8
:1003F00000A0FA0904000001030101000921110114
:1004000000012240000705810308000A09040100D9
:100410000103000000092111010001223600070537
:10042000820320000A120110010000000810CB56C0
:100430001200020102030105010980A101850316D2
:1004400001002603001A81002A830075109501819E
:1004500000C0050C0901A1018504160100269C02BB
:100460001A01002A9C02751095018100C00501093E
:1004700006A101050719E029E71500250195087572
:100480000181029501750881010508190129059569
:100490000575019102950175039101050719002960
:1004A000FF150026FF00950675088100C000112485
:1004B0001FBECFEFDAE0DEBFCDBF04B603FE27C01C
:1004C0008091270290912802A0912902B0912A02DE
:1004D0008730904BA740B04BD1F410922702109276
:1004E00028021092290210922A0214BE84B7877F34
:1004F00084BF0FB6F894A8958091600088618093BE
:100500006000109260000FBEE0E0F8E3099511E092
:10051000A0E0B1E0E0EEFAE402C005900D92AA324C
:10052000B107D9F722E0AAE2B1E001C01D92A732DB
:10053000B207E1F70E94441F0C946E250C94000052
:1005400081E0089581E008950C94A2021F93CF9357
:10055000DF9300D000D01F92CDB7DEB749835A8316
:100560002091640189819A81211112C0662349F08A
:100570000E940A19182F682F89819A810E94AD184C
:1005800003C00E94DD18182F69817A81812F04C071
:100590000E940A1969817A810F900F900F900F9035
:1005A0000F90DF91CF911F910C947005FC01408159
:1005B00051816281738184810C94A6020C9421087C
:1005C000CF92DF92EF92FF92863030F4811105C016
:1005D000909180009F7704C085E0909180009068A2
:1005E00090938000282F30E0AFEFBFEF0E940C25E2
:1005F00025E030E040E050E00E94E4242C3784E124
:1006000038074105510530F4C90169E070E00E94E6
:10061000BC2429C0DA01C9018A50974DAF4FBF4FA2
:100620006627782F892F9A2F25EF38E241E050E096
:100630000E94E42469017A01CA01B9010E94AC2434
:100640009B01AC01C701B6010E94AC24BB27A92FB6
:10065000982F872F009721E0A207B10511F0BC0168
:1006600002C06FEF7FEF7093890060938800FF9066
:10067000EF90DF90CF900895259A2D9882E880938F
:10068000800089E1809381008FEF9FEF9093870036
:10069000809386000C94021D0E943A1A811102C0B8
:1006A0000E94BD1A0E943C030C941E0808950C94ED
:1006B00056030C94570308950E94D3130E945B03C2
:1006C0002FEF84E39CE0215080409040E1F700C090
:1006D000000087E797E790930108809300080C9447
:1006E000E31B0F931F93CF93DF938C010E94D602DD
:1006F000EC01B8010E94A402882309F4E7C1C93CB7
:100700008CE5D80709F4C1C0C0F5C23CECE5DE07B2
:1007100009F486C0C0F4C5318CE5D80778F4C2303E
:100720009CE5D90708F0E8C0C115ECE5DE0709F43F
:100730005CC0C130DC4509F460C0BCC1C631DC45D9
:1007400009F491C1B7C1C53C9CE5D90709F487C03C
:1007500050F4C33CFCE5DF0709F469C0C43CDC4548
:1007600009F471C0A7C1F8018281C73CFCE5DF072D
:1007700009F481C008F47AC083C0C63DECE5DE0709
:10078000B0F4CE3CFCE5DF0708F0A0C1CB3C8CE523
:10079000D80709F488C008F47FC0CC3CECE5DE073C
:1007A00009F489C0CD3CDC4509F48DC083C1C93D45
:1007B0008CE5D80709F43CC150F4C73DECE5DE07F1
:1007C00009F4ECC0C83DDC4509F40BC173C1CD3D53
:1007D0008CE5D80709F487C0CE3D9CE5D907C1F068
:1007E000CC3DDC4509F066C177C0F80182818823E1
:1007F00009F46CC10E945C0369C1F80182818823FD
:1008000009F464C18091DA0181608093DA015EC1EC
:10081000F8018281882309F459C10E94BD1A56C18A
:10082000F8018281811152C10E94980C4FC1F801D8
:100830008281882309F44AC10E948A19827261F078
:100840000E94890C43C1F8018281882309F43EC1CA
:100850000E948A198272A1F30E947B0C37C1F801B1
:100860008281811133C10E94A50B30C181112EC13B
:100870000E94C90B2BC1811129C10E94E90B26C11D
:10088000811124C10E94090C21C1F80182818111CA
:100890001DC10E94290C1AC1F8018281811116C163
:1008A0000E94490C13C1F8018281882309F40EC10A
:1008B0000E94C00A0BC1F8018281882309F406C195
:1008C0000E94D50A03C1F8018281882309F4FEC081
:1008D00081E00E948C0CFAC0F8018281882309F41F
:1008E000F5C080E006C0F8018281882309F4EEC0DB
:1008F00082E00E94E31FEAC0F8018281882309F4A4
:10090000DEC00E943A1A811102C00E94BD1A0E94E4
:100910004D1A90E09093180280931702FE01E35065
:10092000FC45E231F10530F4EA5AFF4F809117029D
:100930000C94062580911702816027C0826025C033
:10094000846023C0806121C080621FC080641DC09C
:1009500080681BC08460886018C08E7F16C08D7F41
:1009600014C08B7F12C08F7E10C08F7D0EC08F7B16
:100970000CC08F770AC08B7F877F07C087FB222739
:1009800020F991E0922790FB87F9809317028091DC
:1009900017020E94511A0E94D31398C0F801828155
:1009A000882351F010922F010E94871B90932C01F5
:1009B00080932B0182E022C080912F0181110FC012
:1009C00080912B0190912C010E94931B883C9105F2
:1009D00030F486E20E94A30F86E20E94D21082E0E9
:1009E00024C0F8018281882361F0109230010E94B6
:1009F000871B90932E0180932D0180E20E9431117C
:100A000065C08091300181110FC080912D019091BE
:100A10002E010E94931B883C910530F487E20E94CE
:100A2000A30F87E20E94D21080E20E9438114EC0CC
:100A3000F80182818111D9CF809130018111F4CFE9
:100A400080912D0190912E010E94931B883C91056D
:100A500058F780E20E94381188E20E94A30F88E2D2
:100A60000E94D21033C00E948A19282FF801828177
:100A700040910A0150910B01882379F02A7A91E084
:100A800009F490E090932A01911102C069E201C03B
:100A900065E3CA010E94F11A0AC080912A018111FE
:100AA00002C069E201C065E3CA010E94F31A0E9414
:100AB000D6190CC081E080932F0180933001C801CA
:100AC000DF91CF911F910F910C94A00280E0DF91F4
:100AD000CF911F910F91089580E090E008950895BF
:100AE00096E0799FF00111249CE3899FE00DF11DB0
:100AF0001124E60FF11DEE0FFF1FE65BFE4F8591FF
:100B000094910895880F991FFC01EE54FD4F859133
:100B100094910895CF93DF930E9470050E947D0702
:100B2000EC01811521E5920708F042C0811560E5CE
:100B3000960708F031C1883E910500F5803E910589
:100B400008F0D7C1883A910570F4853A910508F00C
:100B5000A6C08130910509F4CCC108F47DC1049789
:100B600008F0C7C179C18F3B910508F4A3C0803C50
:100B7000910508F471C1805C9109FDC0C11580E345
:100B8000D80780F4C11590E2D90708F0F2C0C03F41
:100B9000D10508F461C1CF3FD10511F008F0A9C11A
:100BA000D065A7C1C11520E4D20708F0F2C0E7C0A4
:100BB000811569E5960760F5C11588E5D80708F045
:100BC00037C1C11594E5D90778F4C11523E5D207DB
:100BD00008F013C1C11562E5D60708F0F8C0DC2F94
:100BE000CC27C16FD06A85C1C11585E5D80708F447
:100BF0001AC1C11596E5D90708F02EC18C2F0E94A5
:100C0000FA078F71C82FD0E0DC2FCC27D06271C1DA
:100C10008D3B2CE5920709F416C1F0F4CB3B8CE533
:100C2000D80709F40AC108F00BC1C1152AE5D2079B
:100C300008F012C18C2F8F700E94FA0794E0D695AD
:100C4000C7959A95E1F7CF70D0E0DC2FCC27D06A1A
:100C50008F70806EC82B4DC1803C9C4509F4F9C053
:100C6000C13C8CE5D80760F4CE3B9CE5D90709F47C
:100C7000EDC0CF3BDC4509F0EFC0C0E0D2ED39C19B
:100C8000CE0190568115904208F0E6C08D2F8F71ED
:100C90000E94FA07DD27D0628F71D82B2AC1853ACE
:100CA000910509F4DCC0863A910509F0DBC0C2E881
:100CB000D0E41FC1883A910509F4D7C0893A91055B
:100CC00009F4D6C08A3A910509F4D5C08B3A91054A
:100CD00009F4D4C08C3A910509F4D3C08B3B91053B
:100CE00009F4D2C08C3B910509F4D1C08D3A91052D
:100CF00009F4D0C0803B910509F4CFC08E3A91052C
:100D000009F4CEC08F3A910509F4CDC0813B91051D
:100D100009F4CCC0823B910509F4CBC0833B91051B
:100D200009F4CAC0843B910509F4C9C0853B91050B
:100D300009F4C8C0863B910509F4C7C0873B9105FB
:100D400009F4C6C0883B910509F4C5C0893B9105EB
:100D500009F4C4C08D3B910509F4C3C08E3B9105D5
:100D600009F4C2C08A3B910509F4C1C0C0E0D4E4D3
:100D7000C0C0CE019F700E948205EC01BAC0CE01B6
:100D80009927D3FF03C0EC01D86CB3C0EC01D06C41
:100D9000B0C0DF70D06AADC0837021E030E002C027
:100DA000220F331F8A95E2F73C68CE0174E09695D6
:100DB00087957A95E1F78370382BCF70C695C695E5
:100DC00080E2C89FE0011124C22BD32B92C04C2F8C
:100DD0004695469590E2499FA0011124C370DD27F6
:100DE00021E030E0C90102C0880F991FCA95E2F7DF
:100DF000EC01C42BD52BDC687CC04C2F4695469566
:100E000080E2489FA0011124C370DD2721E030E07B
:100E1000C90102C0880F991FCA95E2F7EC01C42BE3
:100E2000D52BDA6866C0DC2FCC27C46FD06A61C0CE
:100E3000DC2FCC27C06FD06A5CC0C0E0D4ED59C0B5
:100E4000C0E0D5ED56C0C0E0D1ED53C0C0E0D0ED5C
:100E500050C0C0E0D3ED4DC0C0E0D0E04AC0C1E812
:100E6000D0E447C0C3E8D0E444C0C2EED4E441C0FB
:100E7000C9EED4E43EC0CAEED4E43BC0C5EBD4E432
:100E800038C0C6EBD4E435C0C3EBD4E432C0C4EB05
:100E9000D4E42FC0C7EBD4E42CC0CCECD4E429C0FC
:100EA000CDECD4E426C0C3E8D5E423C0CAE8D5E439
:100EB00020C0C2E9D5E41DC0C4E9D5E41AC0C1E22E
:100EC000D6E417C0C3E2D6E414C0C4E2D6E411C02D
:100ED000C5E2D6E40EC0C6E2D6E40BC0C7E2D6E453
:100EE00008C0CFE6D4E405C0C0E7D4E402C0CAE23B
:100EF000D6E4CE01DF91CF9108958238910549F172
:100F0000B0F48133910509F458C048F48932910551
:100F100009F44EC08A32910509F454C0089585330E
:100F2000910509F440C08933910599F00895833EF5
:100F3000910529F138F4803E910591F0823E9105AA
:100F4000A1F00895863E9105F9F0873E910531F1B3
:100F500008952091170220FD3AC021FD38C0089560
:100F60008091170280FD35C032C08091170282FF48
:100F700032C08091170284FD30C083EE39C0809169
:100F8000170282FD28C0F5CF8091170283FF27C08A
:100F90008091170284FD21C087EE2AC0809117023C
:100FA00083FD1DC0F5CF8091170285FD1AC01BC0BF
:100FB0008091170285FD17C014C08091170286FD2D
:100FC00014C015C08091170286FD11C00EC080EEBE
:100FD0000FC089E30DC082EE0BC080E009C086EE31
:100FE00007C089E205C085E303C08AE201C081E34E
:100FF00090E008959091170292FF0DC0282F28715C
:10100000283019F4877F846006C0282F247124308B
:1010100011F48B7F886093FF0DC0282F2871283131
:1010200019F4877E846106C0282F2471243111F4BD
:101030008B7E886194FD877E089508950C941D0829
:1010400008950C9420080895E82FF0E0E95CFE4F25
:101050008081089508958091DA018360886080938B
:10106000DA018091000180910001811102C095E0B8
:1010700001C090E09093E90185E0891B8093E8012D
:10108000ADE1B1E041E050E025E02A0F8D91E82F7D
:10109000E295EF70F0E031A18F70BA0102C0660FE7
:1010A000771F8A95E2F7CB01962F9095932391A312
:1010B00092A1892B82A32A13E9CFA7E1B1E041E0F5
:1010C00050E026E02A0F8D91E82FE295EF70F0E0D6
:1010D00031A18F70BA0102C0660F771F8A95E2F7BF
:1010E000CB01962F9095932391A392A1892B82A354
:1010F0002A13E9CFE7E3F1E08AE08E0F11928E1315
:10110000FDCF85E00E944B090C944C036F927F92B7
:101110009F92AF92BF92CF92DF92EF92FF920F9386
:101120001F93CF93DF932DE1622E21E0722EA2E375
:10113000B1E020E001E010E035E0B32EBA0E7D0111
:10114000AC901C92E30189913E01E82FE295EF708B
:10115000F0E031A18F70A80102C0440F551F8A959D
:10116000E2F7CA01342B31A342A1382F3095432333
:1011700042A350EA5A95F1F797E1C92E91E0D92E92
:1011800040E050E0E60199906E01692D62956F7024
:1011900070E0EB0168A170E0D92DDF7002C0759599
:1011A0006795DA95E2F760FD07C0B801042E01C02B
:1011B000660F0A94EAF702C060E070E07C91672B4A
:1011C0006C934F5F5F4F46305105E1F691A1392393
:1011D00031A392A1892B82A3119681E0F70190811E
:1011E000A91201C080E0282BBA12A9CF6091E901B1
:1011F00070E0695C7E4F45E082E391E00E944C091B
:1012000081E0DF91CF911F910F91FF90EF90DF90E0
:10121000CF90BF90AF909F907F906F900895CF93A5
:101220000E948608C82F0E948209882339F12091E4
:10123000E801822F90E0895C9E4F0E94B8098111DD
:1012400018C0909131019F5F90933101963098F0D2
:101250004091E80120E030E050E0F901E40FF51F93
:10126000E95CFE4F10822F5F3F4F25303105A9F713
:1012700002C0109231010E94DE020AC02091E901F1
:10128000822F90E0895C9E4F0E94DC090E94230817
:101290008C2FCF9108950895FF920F931F93CF93B2
:1012A000DF938C01F62ED72FC42F222349F081E043
:1012B000809343010E94871B9093420180934101D8
:1012C000809143018823C1F08091410190914201B6
:1012D0000E94931B069780F0EF2DFD2FD8014C2F15
:1012E00050E0CD01801B910B841795071CF48D9164
:1012F0008193F7CF10924301DF91CF911F910F910E
:10130000FF90089580914401811112C08091D8000E
:1013100080618093D8008AE18A95F1F700C08091BE
:10132000D90080FD02C082E001C081E080934401C9
:1013300081E090914401913009F080E008950C948F
:1013400082090E949F09809300010E9482098111F5
:101350000C94AC090C94B20961E070E081E091E07A
:101360000C94690D61E070E081E091E00C94720DE5
:10137000CF93DF93D82FC92F0E94150E892BC1F46C
:10138000ED2FFC2F80E090E0DC01A95BBE4F2C919B
:101390002193019685309105B9F78091190280FF5C
:1013A00002C0869501C080E08093460181E001C0C3
:1013B00080E0DF91CF91089520E030E0FC01419181
:1013C000CF01F901E95BFE4F40832F5F3F4F25308E
:1013D0003105A1F7809146010C94E002EF92FF9253
:1013E0000F931F93CF93DF93E901662309F44BC05A
:1013F000242F30E0EFEFF0E0E61BF109B901E69FA2
:101400009001E79F300DF69F300D1124232F8B01A3
:10141000031B11095CE3E52EF12CB7010E94BC24EB
:10142000FB01BC01069FC001079F900D169F900D08
:101430001124B7010E94BC24E230F105B1F040F460
:10144000309779F0319711F5832F242F461B21C057
:10145000E430F105A1F068F03597C1F4842F861BC4
:1014600018C0832F262F230F14C0862F830FE42F3D
:1014700003C0E42FE61B842F432F2E2F0AC0842F96
:10148000462F430F06C0842F242F03C080E020E0A6
:1014900040E0E42FF0E0EE54FD4F4491E22FF0E005
:1014A000EE54FD4F9491E82FF0E0EE54FD4FE4919F
:1014B00049839883EA83DF91CF911F910F91FF9029
:1014C000EF9008958091EA01982F96959F7391303F
:1014D00021F0817882608093EA013091EA01432F04
:1014E000441F4427441F2091EB01522F550F852F95
:1014F000842B27FB992790F9893641E094077CF0EB
:1015000068E671E00E94D02480FB37F93093EA014D
:1015100086952078822B90FB87F98093EB010895C4
:1015200088E090E00C942E25CF93DF9300D000D07C
:10153000CDB7DEB7AB01BC0149835A836B837C8393
:101540000E94620A49815A816B817C8188E090E027
:101550000F900F900F900F90DF91CF910C944C252E
:10156000EAEEF1E083E080831092EB018FEF82835B
:101570008383148260817181828193810C94940AA7
:101580008091EE0190E001968430910514F083E0A3
:1015900090E08093EE016091EA017091EB018091FF
:1015A000EC019091ED010C94940A8091EE0190E091
:1015B000019797FF02C080E090E08430910514F01D
:1015C00083E090E08093EE016091EA017091EB017D
:1015D0008091EC019091ED010C94940A80914C0162
:1015E00023E0829FC001112481519E4F6091090127
:1015F00070E02091EA0120FD0DC020E030E0F9010B
:10160000E151FE4F1182108212822D5F3F4F243232
:101610003105A9F70C940B0DEAEEF1E080818E7F85
:10162000808360817181828193810E94940A2FEF6F
:1016300080E792E0215080409040E1F700C0000038
:101640000C94EE0A9091EA0190FF0FC020E030E088
:10165000F901E151FE4F8183608342832D5F3F4F4B
:1016600024323105A9F70C94EE0A0895DF92EF9227
:10167000FF920F931F93CF93DF9300D01F92CDB7AC
:10168000DEB73091EA0130FF3BC0D22E042FF62E98
:10169000E92E182FE32FE695EF73F0E0E95DFE4F9A
:1016A000808180934E013E77323059F49E012F5F46
:1016B0003F4F812F0E94EE094B8169818A810E94F0
:1016C000220B8091EA0110FB87F98093EA011695BD
:1016D0008091EB018078182BE0FA17F91093EB0159
:1016E000F092EC010093ED01DD2051F06091EA01F0
:1016F0007091EB018091EC019091ED010E94940AB0
:101700000F900F900F90DF91CF911F910F91FF904D
:10171000EF90DF900895282FEAEEF1E09081991F75
:101720009927991F3091EB01832F880F482F492B60
:1017300037FB552750F9CA010A9668E671E00E9406
:10174000D024438162810C94360B81E00C948B0B86
:10175000282F9091EA01991F9927991F3091EB0149
:10176000832F880F482F492B37FB552750F9CA0183
:101770004A3051051CF4825A9E4F01C00A9768E610
:1017800071E00E94D0244091ED016091EC010C9435
:10179000360B81E00C94A80B6091EC01262F30E011
:1017A0002F3E310514F46F5E01C06FEF3091EA01F6
:1017B000331F3327331F9091EB01592F550F97FBA0
:1017C000992790F9282F4091ED01852F832B0C94B8
:1017D000360B81E00C94CC0B6091EC01262F30E0AD
:1017E0002131310514F0615101C060E03091EA010E
:1017F000331F3327331F9091EB01592F550F97FB60
:10180000992790F9282F4091ED01852F832B0C9477
:10181000360B81E00C94EC0B4091ED01242F30E06D
:101820002F3E310514F44F5E01C04FEF3091EA01B5
:10183000331F3327331F9091EB01592F550F97FB1F
:10184000992790F9282F6091EC01852F832B0C9418
:10185000360B81E00C940C0C4091ED01242F30E00C
:101860002131310514F0415101C040E03091EA01CD
:10187000331F3327331F9091EB01592F550F97FBDF
:10188000992790F9282F6091EC01852F832B0C94D8
:10189000360B81E00C942C0C20E00C94360B8091DC
:1018A000EA0180FF23C0817882608093EA01662389
:1018B00051F06091EA017091EB018091EC019091FF
:1018C000ED010E94940A8091EA01881F8827881FF1
:1018D0009091EB01292F220F97FB992790F94091C6
:1018E000ED016091EC01822B0C944C0C0895682F53
:1018F00081E00C944F0C81E00C94770C682F909150
:10190000EA0196959F738FEF890F09F481E00C949B
:101910004F0C81E00C947E0C61E00C944F0CEAEECD
:10192000F1E080818160808386958F730C948C0CAC
:101930008091EA0180FD0C940C0B0C948F0C60E0FC
:101940000C944F0C80914D01811132C08091DA01CD
:1019500081608093DA010E943A1A811104C00E94CA
:10196000BD1A0E94B00A0E94900A6093EA01709327
:10197000EB018093EC019093ED016E7761F40E948E
:10198000B00A0E94900A6093EA017093EB01809381
:10199000EC019093ED010E94620A8091EA0180FFC0
:1019A00004C086958F730E949F0C81E080934D0147
:1019B00008952BB1342F309523233BB1432B3FB7F0
:1019C000F894FC01680F791FE617F70789F08191F9
:1019D00098E04BB9000000C087FF2BB9880F0000CA
:1019E00000C000C000C02BB900C09A9591F7ECCFA1
:1019F0003FBF08952AB1242B2AB99B01220F331F20
:101A0000620F731F0E94D90C87EC90E00197F1F7E9
:101A100000C00000089548E00C94FA0C8EE1489B49
:101A200002C08150E1F7489BFECF0895589880E2AC
:101A30008A95F1F7589A0895FC013AE03A95F1F742
:101A400098E020E080E031E040E14A95F1F7880F2E
:101A5000489B02C08160232700C0000040E14A95F6
:101A6000F1F7915089F790E19A95F1F799B100C09B
:101A7000000030E13A95F1F7917092272081920FA2
:101A800090830895FF920F931F93CF93DF9300D01D
:101A9000CDB7DEB71982F82E8C01802F8F198617EB
:101AA00060F46A830E940E0DCE0101960E941C0D07
:101AB000F80181938F016A81F0CF81E099819111C2
:101AC00080E00F900F90DF91CF911F910F91FF90C9
:101AD0000895909352018093510160935001509A60
:101AE000589A089590935201809351016093500148
:101AF0005098589AE89AE9E6F0E080818C7F8083DC
:101B00000895615091E001C0990F6A95EAF720E0CD
:101B100031E0992361F0492F482319F0589A23277F
:101B200001C0589840E24A95F1F79695F2CF2223EA
:101B300011F0589A01C0589880E28A95F1F75898A8
:101B40000895EF92FF920F931F93CF93DF931F920D
:101B5000CDB7DEB7162F082F7C018E2D801B811785
:101B600058F4F70181917F0189830E94160D68E086
:101B700089810E94810DF1CF0F90DF91CF911F914C
:101B80000F91FF90EF9008951F920F920FB60F9252
:101B900011242F933F934F935F936F937F938F9372
:101BA0009F93AF93BF93CF93DF93EF93FF93589897
:101BB000509AC0915101D09152016D81662321F05C
:101BC0008E819F810E94A10D0E94160D80E18A9551
:101BD000F1F758985098589A80E18A95F1F76A8100
:101BE000662351F08B819C810E94420DE881F9812E
:101BF000811104C082E003C0E881F98188E080831C
:101C00000E940E0DFF91EF91DF91CF91BF91AF91A7
:101C10009F918F917F916F915F914F913F912F9104
:101C20000F900FBE0F901F901895CF93DF93C09128
:101C30005101D0915201F894509A589885E08A95B4
:101C4000F1F700005098589A80E28A95F1F7489B86
:101C50000AC0509A589AE881F98181E0808378948B
:101C600081E090E02CC06D81662381F08E819F81A0
:101C70000E94420D81110AC0509A589AE881F98158
:101C800082E08083789482E090E019C00E940E0D7B
:101C900080E28A95F1F75898509A80E18A95F1F799
:101CA0006A81662321F08B819C810E94A10D0E9494
:101CB000160DE881F9811082789480E090E0DF9140
:101CC000CF91089590935801809357010895E09122
:101CD0005701F0915801309721F00190F081E02DEB
:101CE000099480E00895E0915701F09158013097F0
:101CF00021F00280F381E02D09940895209155018F
:101D0000309156018217930771F09093560180939A
:101D10005501E0915701F0915801309721F006806C
:101D2000F781E02D099408952091530130915401D9
:101D30008217930771F09093540180935301E091BF
:101D40005701F0915801309721F00084F185E02D82
:101D50000994089585B7806885BF85B7806885BF79
:101D6000089508950C94B10E08950C94B40E0E9439
:101D7000AA0E0E94A1090C94B20E0E947E1B0E9422
:101D80002B080E94F41B0E94021D0E94A20C0C94BE
:101D9000B50ECF92DF92EF92FF920F931F93CF93E6
:101DA000DF93CDB7DEB72B970FB6F894DEBF0FBE2B
:101DB000CDBF0E940F090E948209811111C08FEFCF
:101DC00089838A831B820E94871B8160782F9D8371
:101DD0008C8349815A816B818D810E946F0F56C01F
:101DE0008AE5C82E81E0D82E00E010E0E02E802F9A
:101DF0000E942408F60141916F01F42EF82631F477
:101E00000F5F1F4F0A30110589F7D9CF9091DA0182
:101E100091FF04C08B870E942A088B8520E030E068
:101E20004F2D50E0922FBA01022E02C07595679592
:101E30000A94E2F760FF24C02E83EF8221E030E0B5
:101E4000690102C0CC0CDD1C9A95E2F790E08C2170
:101E50009D21892B09F420E028870E94871B81603F
:101E6000782F9A8789874E815F8168858A850E944D
:101E70006F0FF801E65AFE4F8081C826C08206C067
:101E80002F5F3F4F2630310569F6BACF10915901C7
:101E90000E94670E1817A1F00E94670E80935901E7
:101EA0002B960FB6F894DEBF0FBECDBFDF91CF915A
:101EB0001F910F91FF90EF90DF90CF900C945903FA
:101EC0002B960FB6F894DEBF0FBECDBFDF91CF913A
:101ED0001F910F91FF90EF90DF90CF900895CF93D7
:101EE000DF93CDB7DEB72B970FB6F894DEBF0FBEEA
:101EF000CDBF4F83588769877A878B87DE0111961C
:101F000086E0FD0111928A95E9F785E0FE0137969A
:101F100001900D928A95E1F749815A816B817C810C
:101F20008D819E810E947D162B960FB6F894DEBFA0
:101F30000FBECDBFDF91CF910895FC0180819181CB
:101F40000E944B190895CF93DF931F92CDB7DEB750
:101F5000882309F423C1682F8238C1F40E94670ED8
:101F600081FD1CC169E380910A0190910B010E94DF
:101F7000F11A0E94D6192FEF81EE94E02150804093
:101F80009040E1F700C0000069E319C0833811F503
:101F90000E94670E80FD02C163E580910A01909165
:101FA0000B010E94F11A0E94D6192FEF81EE94E0E6
:101FB000215080409040E1F700C0000063E580912F
:101FC0000A0190910B010E94F31A0F90DF91CF91BB
:101FD0000C94D6198438C1F40E94670E82FDDEC0CD
:101FE00067E480910A0190910B010E94F11A0E940E
:101FF000D6192FEF81EE94E0215080409040E1F718
:1020000000C0000067E4DBCF8CEF860F813A70F4EC
:10201000862F69830E94C61C69818111BFC080918F
:102020000A0190910B010E94F11ACFCF80E2860F36
:10203000883048F4677081E001C0880F6A95EAF73C
:102040000E948D19C2CF8BE5860F833088F4653AE4
:1020500029F0663A31F083E890E005C081E890E02D
:1020600002C082E890E00F90DF91CF910C947E0E39
:1020700088E5860F873108F091C0683A09F445C0B9
:10208000693A09F445C06A3A09F445C06B3A09F463
:1020900045C06C3A09F445C06B3B09F445C06C3B44
:1020A00009F445C06D3A09F445C0603B09F445C0E8
:1020B0006E3A09F445C06F3A09F445C0613B09F432
:1020C00045C0623B09F445C0633B09F445C0643B2D
:1020D00009F445C0653B09F445C0663B09F445C0B9
:1020E000673B09F445C0683B09F445C0693B09F406
:1020F00045C06D3B09F445C06E3B09F445C06A3BE1
:1021000009F445C080E090E044C082EE90E041C018
:1021100089EE90E03EC08AEE90E03BC085EB90E017
:1021200038C086EB90E035C083EB90E032C084EBA2
:1021300090E02FC087EB90E02CC08CEC90E029C0A1
:102140008DEC90E026C083E891E023C08AE891E01E
:1021500020C082E991E01DC084E991E01AC081E2CB
:1021600092E017C083E292E014C084E292E011C0D2
:1021700085E292E00EC086E292E00BC087E292E038
:1021800008C08FE690E005C080E790E002C08AE2D8
:1021900092E00F90DF91CF910C94940E0F90DF910D
:1021A000CF910895882309F45BC0682F823879F4B1
:1021B0000E94670E81FF54C069E380910A019091EB
:1021C0000B010E94F11A0E94D61969E310C08338EE
:1021D000B1F40E94670E80FF43C063E580910A015D
:1021E00090910B010E94F11A0E94D61963E580912B
:1021F0000A0190910B010E94F31A0C94D6198438AD
:1022000079F40E94670E82FF2BC067E480910A0177
:1022100090910B010E94F11A0E94D61967E4E7CF52
:102220008CEF860F813A18F380E2860F883048F4ED
:10223000677081E001C0880F6A95EAF70E949319E0
:10224000DCCF8BE5860F833020F480E090E00C94A7
:102250007E0E685A673120F480E090E00C94940E72
:102260000895882321F00E948D190C94D6190895A1
:10227000882321F00E9493190C94D61908954F9247
:102280005F926F927F92BF92CF92DF92EF92FF9216
:102290000F931F93CF93DF937C01D62FC72FFC01A1
:1022A000058102950F70128111110E94AA190E94D6
:1022B0008319882379F0112369F080E28D0F88302B
:1022C00048F082E00E94211A0E94831991E0B82E02
:1022D000B92601C0B12CCC2EC2948FE0C822D12CDB
:1022E000F601E859FF4F0C9406258C2F807FCF70A4
:1022F000882311F0C295C07F112399F0CC2309F4F3
:102300008EC180E28D0F883010F0D11104C08C2F67
:102310000E948D1903C08C2F0E949D190E94D6190E
:102320007EC18D2F0E94D210CC2309F4C1C180E25E
:102330008D0F883010F0D11104C08C2F0E9493199A
:1023400003C08C2F0E94A3190E94D619B1C18C2FF3
:10235000807FCF70803211F0C295C07FDD2319F0ED
:10236000D130C9F022C0112371F0002341F00130B7
:1023700031F40E94BD198C2B0E94C31999C10E948F
:10238000BD198C2B1DC0002319F0013009F490C138
:102390000E94CC191AC0112321F0063008F088C120
:1023A0000EC0053008F084C110C0112361F0002375
:1023B00031F0F701858180FF32C18F7085838C2FCA
:1023C0000E94311175C101113BC18C2FE6C08C2FC9
:1023D00086958695837090E0009719F0019761F0DB
:1023E00067C1112321F08D2F9C2F937002C080E0D4
:1023F00090E00E947E0E6CC1112321F08D2F9C2F46
:10240000937002C080E090E00E94940E61C18C2F16
:10241000837009F050C0111157C18D2F8295869598
:102420008770880F880F9D2F9F70492E512C612C2B
:10243000712C082E04C0440C551C661C771C0A9491
:10244000D2F7D4FF14C00FE010E020E030E0B90173
:10245000A80104C0440F551F661F771F8A95D2F745
:10246000CB01BA01609570958095909503C060E0AE
:1024700070E0CB01C695C695C370D0E0C230D105DF
:1024800061F0C330D10581F0642975298629972927
:10249000219771F00E94C21717C1642975298629F6
:1024A00097290E94D41710C10E94C217C301B2011C
:1024B0000E94B01709C1112319F08C2F817001C03F
:1024C0008695882309F400C18D2F829586958770A3
:1024D000880F880F9D2F9F70492E512C612C712CD5
:1024E000082E04C0440C551C661C771C0A94D2F7B5
:1024F000D4FF14C00FE010E020E030E0B901A801E3
:1025000004C0440F551F661F771F8A95D2F7CB0171
:10251000BA01609570958095909503C060E070E079
:10252000CB01C695C695C3704C2F50E04230510583
:1025300069F04330510589F0642975298629972966
:102540004130510571F00E948818BEC06429752978
:10255000862997290E949A18B7C00E948818C3013B
:10256000B2010E947618B0C08D2F90E0FC01E05EB1
:10257000F109E531F10508F04EC0E858FF4F0C9421
:102580000625DF708C2F8F71112321F00E940F1808
:102590008D2F16CF0E9430188D2F0E94381188C0C1
:1025A000112341F0053008F083C08C2F8F710E94F9
:1025B00055187EC0063008F07BC0F7CF112339F0E4
:1025C0008C2F8F710E940F1873C01123C9F38C2FA9
:1025D0008F710E9430186CC0112329F08C2F8F71DD
:1025E0000E94FA1765C00E94F51762C0112349F0D6
:1025F000CF718C2F0E940F1863E08C2F0E940C1A51
:1026000057C081E00E94211A023008F451C082E0D4
:102610000E94211A4DC0112331F0002389F28D2F21
:102620000E94A30F45C0002391F2D93349F45FEF14
:1026300067EE73E0515060407040E1F700C0000069
:102640008D2F0E94D21034C04C2F4F706D2FC701B8
:102650000E946C050E9421173BC0111139C0CF7038
:10266000D0E0C230D10599F03CF4209769F0219771
:10267000F9F40E943C1D2CC0C430D10571F054F017
:102680002597B1F480E00AC00E941F1D21C00E945E
:102690007B1D1EC00E94821D1BC085E00E94A51DDF
:1026A00017C04C2F4F706D2FC7010E946F0510C0CF
:1026B00088E0C816D10441F05CF0EAE0CE1AD108F7
:1026C000F2E0CF16D10420F40E94670E0E94590355
:1026D000BB20F1F00E947F1980FD1AC0F701128221
:1026E0000E9479190E940F18C7010E9496130E9438
:1026F0007919DF91CF911F910F91FF90EF90DF90AB
:10270000CF90BF907F906F905F904F900C94301857
:10271000DF91CF911F910F91FF90EF90DF90CF90BD
:10272000BF907F906F905F904F9008950F931F938D
:10273000CF93DF93EC01888199812B813C81232BFE
:10274000B9F09F3F11F48F3F99F0CE010E947103C1
:10275000882371F0688179818A810E9456198C01E1
:102760000E94AC180E94AD17B801CE010E943F1123
:10277000DF91CF911F910F9108950E94AA190E9495
:10278000BA190E94D61980E090E00E947E0E80E087
:1027900090E00C94940E80910A0190910B010E949C
:1027A000F51A0C94BD130E949A190C94CB13E92FBF
:1027B000E295EF70F0E03297EE30F105B0F4E357B8
:1027C000FF4F0C940625803F91F018F4803E68F48A
:1027D0000EC0843F51F40BC0803E48F0813F29F485
:1027E00006C093FB882780F9089580E0089581E072
:1027F00008950E944B190E94D7130895CF93DF9339
:1028000000D000D01F92CDB7DEB70F900F900F9081
:102810000F900F90DF91CF910895CF93DF9300D069
:1028200000D000D0CDB7DEB726960FB6F894DEBF45
:102830000FBECDBFDF91CF9108951F93CF93DF934C
:10284000C091650116E080916601C81799F0D0E04B
:102850001C9FF0011D9FF00D1124E959FE4F40818E
:10286000518162817381848195810E940D1421962A
:10287000C770E9CFDF91CF911F91089540919701E3
:10288000509198016091990170919A0180919B01FA
:1028900090919C010C940D1480919C0182958F70F5
:1028A00009F054C080919901882309F44FC08091A8
:1028B0006501A09166016091970170919801409126
:1028C0009A0150919B01B6E08A1709F43FC090E04D
:1028D00041155105C1F17F3F11F46F3FA1F1B89F40
:1028E000F001B99FF00D1124E959FE4F21817213B7
:1028F0002AC02081621327C02281211124C0238194
:1029000034812417350710F421503109241B350B6D
:10291000283C3105C0F420919C012F702061209348
:102920009C0126E0289FF001299FF00D1124E45915
:10293000FE4F80818F708061808387E991E00E94E3
:1029400096130C941D1401968770BECF0895CF92F4
:10295000DF92EF92FF920F931F93CF93DF93CDB748
:10296000DEB762970FB6F894DEBF0FBECDBF8C0105
:1029700085E0F801DE011D9601900D928A95E1F740
:10298000D8014C9111965C91119712966C91129707
:102990001396CD90DC901497309197017091980127
:1029A00080919A0190919B01009709F46BC17F3F40
:1029B00019F43F3F09F466C1E0909901EE2009F453
:1029C000C0C020919C01C816D90628F0F601E81B6A
:1029D000F90BCF0104C0809590958C0D9D1DFF24AF
:1029E000F394883C910578F0F12C207F09F0C6C063
:1029F0007C2DD98AC88A89890E94FE1387E991E0D3
:102A00000E949613B1C0822F807F09F046C07513D3
:102A100014C0341312C0611110C02F7020612093B4
:102A20009C010E943E1487E991E00E9496138091D8
:102A30009C01D80115968C932EC0CD2819F15F3FCB
:102A400011F44F3FF9F0F62E61111CC08091650121
:102A50002091660136E0821709F45AC090E0389F51
:102A6000F001399FF00D1124E959FE4F7181571380
:102A700006C07081471303C07281711103C00196B3
:102A80008770E9CFF62E662309F427C180919C0157
:102A9000816080939C01F12C20C1751308C0341310
:102AA00006C0611104C080919C01D801C3C04D874C
:102AB0005E878D859E856A8B0E94F9136A898823BB
:102AC000E1F16623D1F120919C01822F82958F70D4
:102AD00090E0029774F08091970190919801988707
:102AE0008F831986DB86CA862C87CE0107960E94C3
:102AF000961386E0F801A7E9B1E001900D928A955E
:102B0000E1F70E944C140E943E14FF24F394E5C0A8
:102B10004D875E878D859E850E944B19292F2295B2
:102B20002F7030E0223031050CF0CBC09F7009F0DF
:102B3000C5C0805E883008F4D0C0C8010E949613DA
:102B4000E4CFC816D90608F453C0F601E81BF90B08
:102B5000CF01883C910508F450C0F12C7C2DD98A16
:102B6000C88A89890E94FE13E7E9F1E086E0DF0167
:102B70001D928A95E9F70E943E14AFC0751314C0E8
:102B8000341312C0611110C080919C01F80185833B
:102B9000C8010E94961386E0E7E9F1E0DF011D928B
:102BA0008A95E9F7FE2C99C04D875E878D859E85B5
:102BB0006A8B0E94F9136A89882309F4BECF6623C1
:102BC00009F4BBCF20919C01822F82958F7090E0F9
:102BD00002970CF48ECF80919701909198019A837F
:102BE00089831B82DD82CC822E83CE0101967FCF2A
:102BF000809590958C0D9D1DACCFF62E662309F423
:102C00009CCF75132EC034132CC020919C0120FD45
:102C10001FC0822F82958F70D9F0D80115962C9302
:102C200015978F3049F08F5F982F9295907F822F64
:102C30008F70892B15968C93C8010E94961386E09D
:102C4000F801A7E9B1E001900D928A95E1F793CFE1
:102C500086E0F801A7E9B1E001900D928A95E1F7CD
:102C60003CC04D875E878D859E850E94F91381113A
:102C700040CF80919C01816080939C01C8010E949B
:102C800096132BC0662309F458CF4D875E878D8538
:102C90009E850E94F913F82E882309F44ECF86E012
:102CA000F801A7E9B1E001900D928A95E1F787E973
:102CB00091E00E949D0F0E944C145DCF811139CF8D
:102CC0000CC0243031050CF038CF9F7009F431CF9F
:102CD000F8019581907F09F02CCF8F2D62960FB669
:102CE000F894DEBF0FBECDBFDF91CF911F910F9142
:102CF000FF90EF90DF90CF9008951F93CF93DF93D5
:102D0000CDB7DEB72C970FB6F894DEBF0FBECDBFA0
:102D10004F83588769877A878B879C87CE01079670
:102D20000E94A714882369F08F8198852A853B85A6
:102D3000232BF1F19F3F09F063C08F3F09F060C082
:102D400037C086E0FE013796DE01119601900D92A4
:102D50008A95E1F76F817885EA85FB85309741F1A7
:102D60007F3F11F46F3F21F12091660130E0C901EE
:102D70000196877099274091650150E08417950767
:102D800009F447C069837A83FD83EC8396E0929FC0
:102D9000D001939FB00D1124A959BE4FFE01319669
:102DA00001900D929A95E1F7809366010E941D149F
:102DB00016E080916501909166018917C1F1189F15
:102DC000C001112489599E4F0E94A714882379F1CC
:102DD000E09165011E9FF0011124E959FE4F4081E9
:102DE000518162817381848195810E940D1480914B
:102DF000650190E001968770992780936501D9CF8E
:102E00004F81588569857A858B859C850E940D1434
:102E1000CFCF0E94D3131092660110926501E7E9AB
:102E2000F1E086E0DF011D928A95E9F7C1CF2C968B
:102E30000FB6F894DEBF0FBECDBFDF91CF911F91CB
:102E40000895EF92FF920F931F93CF93DF938C011E
:102E5000892B09F46CC0F12CEE24E394E80121964F
:102E6000F8018491843740F4843008F051C08130F7
:102E700081F0823019F15BC0853709F444C0A8F1B4
:102E80009CE7980F903708F052C08F770E94D210BD
:102E900041C00E5F1F4FFE01C49180E28C0F88304D
:102EA00048F4C7708E2D01C0880FCA95EAF70E94BA
:102EB000AD1914C08C2F0E94A30F2DC00E5F1F4FA1
:102EC000FE01C49180E28C0F883058F4C7708E2DBB
:102ED00001C0880FCA95EAF70E94B3190E94D6195B
:102EE0001AC08C2F0E94D21016C00E5F1F4FFE0119
:102EF000C491CC2381F08FE99FE00197F1F700C0E6
:102F00000000C150F6CF0E5F1F4FFE01F49003C0CA
:102F10000E94A30F8E018F2D882309F49FCFEFE924
:102F2000FFE03197F1F700C000008150F5CFDF914D
:102F3000CF911F910F91FF90EF90089508950C94F9
:102F40009E170E949F176093C9017093CA018093D6
:102F5000CB019093CC010C94BD1308950C94A11750
:102F60000F931F930091C9011091CA012091CB01C9
:102F70003091CC01602B712B822B932B1F910F91E1
:102F80000C94A1170F931F930091C9011091CA01CE
:102F90002091CB013091CC016023712382239323B4
:102FA0001F910F910C94A1170F931F930091C901CA
:102FB0001091CA012091CB013091CC01602771277B
:102FC000822793271F910F910C94A11708950C94B9
:102FD000E6170E94E7176093C5017093C6018093BE
:102FE000C7019093C8010C94BD1360E070E0CB0161
:102FF0000C94E9170F931F9341E050E060E070E0FC
:103000008A019B0104C0000F111F221F331F8A95E4
:10301000D2F7C901B8011F910F910C94E9170F93D2
:103020001F9341E050E060E070E004C0440F551F82
:10303000661F771F8A95D2F78091C5019091C601CE
:10304000A091C701B091C8018A019B01082B192BDF
:103050002A2B3B2BC901B8011F910F910C94E91742
:103060000F931F9341E050E060E070E004C0440F14
:10307000551F661F771F8A95D2F74095509560952A
:1030800070958091C5019091C601A091C701B09142
:10309000C8018A019B01082319232A233B23C90164
:1030A000B8011F910F910C94E9170F931F9341E002
:1030B00050E060E070E004C0440F551F661F771FAA
:1030C0008A95D2F78091C5019091C601A091C70160
:1030D000B091C8018A019B01082719272A273B279D
:1030E000C901B8011F910F910C94E9170F931F9319
:1030F0000091C5011091C6012091C7013091C8010E
:10310000602B712B822B932B1F910F910C94E9173D
:103110000F931F930091C5011091C6012091C70123
:103120003091C80160237123822393231F910F9153
:103130000C94E9170F931F930091C5011091C601DC
:103140002091C7013091C8016027712782279327FA
:103150001F910F910C94E9170895292F220F920FB8
:10316000990F890FA82FA695A695A695877051E06F
:1031700001C0550F8A95EAF785E0A89FD001112478
:1031800020E030E070E0F901EA0FFB1FE356FE4F4C
:103190004081CB01022E02C0969587950A94E2F7F2
:1031A00081709927819584278523842780832F5FC9
:1031B0003F4F2530310539F70895292F220F920FFF
:1031C000990F890F682F669566956695982F977069
:1031D00085E0689FB001112440E050E080E0FA01F2
:1031E000E60FF71FE356FE4F208130E0092E02C0A4
:1031F000369527950A94E2F721703327042E01C0F3
:10320000220F0A94EAF7822B4F5F5F4F453051053A
:1032100031F70895BF92CF92DF92EF92FF920F9312
:103220001F93CF93DF938C01C090C901D090CA0146
:10323000E090CB01F090CC018091C5019091C60146
:10324000A091C701B091C801C82AD92AEA2AFB2A4D
:10325000CFE1D0E0D701C6010C2E04C0B695A795EA
:10326000979587950A94D2F780FF07C0BC2EB801C6
:103270008C2F0E948A05019719F4219758F7B12CD9
:103280008B2DDF91CF911F910F91FF90EF90DF90E9
:10329000CF90BF900895CF93DF93EC010E940A195D
:1032A000BE010E948A05DF91CF9108951F93CF93AD
:1032B000DF93EB0190916401992321F0CB010E94EF
:1032C0004B1913C0882349F0CB010E940A19182F0B
:1032D000682FCE010E94AD1804C0CB010E94DD18FA
:1032E000182FBE01812F0E948A05DF91CF911F9177
:1032F00008958091CD018595859585950895809156
:10330000CD01877008959091CD01977081E009F407
:1033100080E008958091D90108959091D901892B79
:103320008093D901089580959091D9018923809344
:10333000D90108951092D90108959091D801892B4F
:103340008093D801089580959091D8018923809326
:10335000D80108951092D80108959091D701892B32
:103360008093D701089580959091D7018923809308
:10337000D70108951092D70108958091CE01089544
:1033800008950C94C0199091CE01981721F0809364
:10339000CE010C94C11908958091CE01882329F0A3
:1033A0001092CE0180E00C94C1190895E0910A01B9
:1033B000F0910B018091D9018083E0910A01F09195
:1033C0000B0190818091D801892B8083E0910A01C3
:1033D000F0910B0190818091D701892B808380919E
:1033E000CE01882381F0E0910A01F0910B019081D8
:1033F000892B808380910A0190910B010E94BF1A52
:1034000081110E94CC1980910A0190910B010C94BA
:10341000730E08950C94091A98E0899F9001112465
:10342000262B2093CD010E940F188091CD01859508
:10343000859585950C940A1A1092CD0180E00C9424
:103440000A1A2091CD01809582238093CD01982F77
:10345000977079F430E0482F082E000C550B241794
:10346000350739F08595859585950E9430180C941F
:103470001C1A089580E090E00E94342521E08D3EE2
:103480009E4F09F020E0822F089582E090E00C9496
:10349000262583E090E00C94262584E090E00C94AF
:1034A0002625682F84E090E00C943A2586E090E091
:1034B0000C942625682F86E090E00C943A25AB0109
:1034C000BC018FE090E00C944C25AB01BC0183E182
:1034D00090E00C944C2560E070E0CB010C94651AF0
:1034E00060E070E0CB010E945F1A0C946B1A6DEEE5
:1034F0007EEF80E090E00E94582560E082E090E05E
:103500000E943A2560E083E090E00E943A25109204
:10351000C9011092CA011092CB011092CC0160E057
:1035200084E090E00E943A2560E085E090E00E940F
:103530003A2560E086E090E00E943A256FEF87E050
:1035400090E00E943A2540E050E0BA0188E090E027
:103550000E944C2560E08DE090E00E943A2540E01A
:1035600050E0BA0188E190E00E944C2560E087E1DC
:1035700090E00E943A250C94701A0C94771AFC0182
:10358000329697E080E0915029F021912223D9F3DF
:103590008F5FF9CF08959C01FC0132969FEF80E088
:1035A0004191461789F09F3F19F4411101C0982FAE
:1035B0008F5F8630A9F79F3F39F0F901E90FF11DC0
:1035C00097FDFA95628308950895FC013296089656
:1035D0002081261301C010823196E817F907C1F740
:1035E00008950C94CB1A0C94E51A029626E0FC017F
:1035F00011922A95E9F7089508950C94FC1A0E94F7
:10360000FD1A80911E02843061F11092DB0120E4EA
:1036100088E190E00FB6F894A895809360000FBE03
:103620002093600080E00E94E00280E00E94590345
:103630000E94FD1A83B7817F846083BF83B7816056
:1036400083BF7894889583B78E7F83BF0FB6F89435
:10365000A89580916000886180936000109260005E
:103660000FBE089508950895CF930E94321B0E94C3
:103670000F090E94331BC0E08C2F0E942408811187
:1036800004C0CF5FCA30C1F701C081E0CF91089577
:1036900008950C94481B0E94D3130E94021D0E949F
:1036A000670E0E9459030C94491B1F920F920FB68C
:1036B0000F9211248F939F93AF93BF938091DB015F
:1036C000811113C08091130290911402A0911502F0
:1036D000B09116024196A11DB11D809313029093E3
:1036E0001402A0931502B0931602BF91AF919F915F
:1036F0008F910F900FBE0F901F90189582E084BDA0
:1037000093E095BD9AEF97BD80936E0008952FB713
:10371000F8948091130290911402A0911502B09137
:1037200016022FBF0895CF92DF92EF92FF920F9370
:103730001F932FB7F8944091130250911402609197
:103740001502709116022FBF6A017B01EE24FF243F
:103750008C0120E030E0C016D106E206F30610F43A
:10376000415051099A01281B390BC9011F910F9132
:10377000FF90EF90DF90CF90089578941F920F9272
:103780000FB60F9211248F939F93AF93BF938091A5
:10379000130290911402A0911502B09116020196A5
:1037A000A11DB11D8093130290931402A0931502E2
:1037B000B0931602BF91AF919F918F910F900FBE62
:1037C0000F901F90189587E797E7909301088093D3
:1037D00000089AE088E10FB6F894A89580936000FD
:1037E0000FBE90936000FFCF0E943A1A811102C071
:1037F0000E94BD1A0E94451A8093DA010E944D1A58
:1038000090E090931802809317020E94491A682F43
:1038100070E080E090E00C94AE170F931F938B3113
:1038200009F474C058F58B3009F4A1C078F48630DF
:1038300009F446C020F4853009F44CC09FC087309D
:1038400009F456C0883009F492C098C0803109F458
:1038500070C068F48E3009F091C08091DA0182FB6B
:10386000222720F991E0922790FB82F958C08631F7
:1038700009F47DC0893109F47AC080C08A32E9F048
:1038800060F4873209F475C028F48E3108F476C0EC
:103890008D515AC08932F1F071C0833450F48A33AB
:1038A00008F051C0853309F464C0883309F45FC05F
:1038B00065C0833409F45DC061C00E94BD1A57C061
:1038C0008091DA01817F8E7F8093DA0181E080939D
:1038D000DC0155C00E94D3130FEF13ED20E301501C
:1038E00010402040E1F700C000000E94E31B3FC0F1
:1038F0008091DA01982F9095917090FB80F98093D8
:10390000DA01911134C0897F877F10C08091DA017C
:1039100081FB222720F991E0922790FB81F9809387
:10392000DA01992321F18091DA0181608093DA0133
:103930001EC08091DA0183FB222720F991E09227B3
:1039400090FB83F9ECCF895341E050E060E070E0F8
:103950008A019B0104C0000F111F221F331F8A958B
:10396000D2F7C901B8010E94AE170E94D31381E0BB
:1039700006C061E070E080E090E0F5CF80E01F914C
:103980000F91089580E0089580E00895CF93C82FA7
:103990008091DC01882319F0813031F02BC00E9426
:1039A0008A19823249F504C00E948A19823261F470
:1039B0008C2F0E94C21C811104C08C2F0E940D1CF0
:1039C00017C081E090E014C08C2F0E94C41C8111AC
:1039D0000EC0C43149F018F4CB3049F00FC0C932E1
:1039E00019F0C83321F00AC01092DC0107C081E051
:1039F000817006C01092DC0180E002C080E0F8CF48
:103A0000CF9108950E943A1A811102C00E94BD1AF6
:103A10000E94561A80931902282F269530E02630EE
:103A2000310524F081708A60809319028091190217
:103A300080FF02C0869501C080E00C94E0022091D6
:103A40001902822F8695482F50E04530510544F4E5
:103A50008F5F982F990F822F8170892B8093190285
:103A6000809119028160809319020E945A1A8091F4
:103A7000190286950C94E00280911902982F969570
:103A800091F09158990F8170892B809319028E7F44
:103A900091E009F490E08091190290FB80F9809305
:103AA00019020E945A1A8091190286950C94E0021C
:103AB0008091190280FD11C08160809319028130CC
:103AC00019F483E080931902809119020E945A1A16
:103AD0008091190286950C94E00208958091190254
:103AE00080FF08C08E7F809319020E945A1A80E0DE
:103AF0000C94E00208958091190280FD0C946E1DD3
:103B00000C94581D90911902892F86958F5F8F779D
:103B10009170863028F4880F892B8093190202C097
:103B200090931902809119028E7F91E009F490E040
:103B30008091190290FB80F9809319020E945A1A11
:103B40008091190286950C94E002863008F085E099
:103B5000880F909119029170892B809319028E7FA2
:103B600091E009F490E08091190290FB80F9809334
:103B700019020E945A1A8091190286950C94E0024B
:103B80008091E501089508950F931F93CF93DF93DC
:103B900000D01F92CDB7DEB78C010E94F31F823098
:103BA00011F0843021F584E089831B830A8382E04D
:103BB0008093E9008FEF9091E800815095FD06C059
:103BC00095ED9A95F1F700008111F5CF8091E8000D
:103BD00085FF0DC040E050E063E070E0CE0101964B
:103BE0000E9410208091E8008E778093E8000F906B
:103BF0000F900F90DF91CF911F910F910895CF9368
:103C0000DF9300D01F92CDB7DEB720911E02243083
:103C100031F523E02983805891099B838A8382E0D0
:103C20008093E9008FEF9091E800815095FD06C0E8
:103C300095ED9A95F1F700008111F5CF8091E8009C
:103C400085FF0DC040E050E063E070E0CE010196DA
:103C50000E9410208091E8008E778093E8000F90FA
:103C60000F900F90DF91CF910895CF93DF93EC01E8
:103C70000E94F31F823011F0843039F581E0809387
:103C8000E9008FEF9091E800815095FD06C095ED19
:103C90009A95F1F700008111F5CF8091E80085FF3A
:103CA00014C040E050E068E070E0CE010E941020B7
:103CB0008091E8008E778093E80088E0FE01ADED0A
:103CC000B1E001900D928A95E1F7DF91CF910895CF
:103CD00080911D02811109C00E94A5210E9402222B
:103CE0008091E20084608093E200089510921D02AA
:103CF0000895089508950C944B1B42E061EC81E017
:103D00000E941F2142E261EC82E00C941F2180910D
:103D10002002833009F460C030F4813071F08230C9
:103D200009F499C008958A3009F485C08B3009F4EC
:103D30006BC0893009F0A7C020C080911F02813A72
:103D400009F0A1C08091E800877F8093E80080910E
:103D5000230290912402892B21F468E08DED91E0FB
:103D600003C060E080E090E070E00E945B20809102
:103D7000E8008B778093E800089580911F028132DC
:103D800009F081C08091230290912402029708F0EB
:103D90007AC08091E800877F8093E8008091E800F6
:103DA00082FD05C080911E028111F8CF6CC0209168
:103DB000F3008091F20090E0922B029729F4809119
:103DC000F1008B7F813021F48091F1008093E50137
:103DD0008091E8008B7753C080911F02813A09F0EF
:103DE00052C08091230290912402892B09F04BC08C
:103DF0008091E800877F8093E8008091E80080FF51
:103E0000FCCF8091160136C080911F028132D9F516
:103E10008091230290912402892BA9F58091E800DA
:103E2000877F8093E8000E94542180912102809333
:103E300016010C94D31380911F02813221F58091D9
:103E4000E800877F8093E8000E945421809122023D
:103E50008093E601089580911F02813AA1F4809138
:103E6000E800877F8093E8008091E80080FFFCCF26
:103E70008091E6018093F1008091E8008E77809335
:103E8000E8000C945421089584B7877F84BF0FB64F
:103E9000F894A895809160008861809360001092EA
:103EA00060000FBE80E880936100109261000E9464
:103EB000B70E0E94A5210E9402228091E200846038
:103EC0008093E20078940E9491240E94BD0E8CE0C1
:103ED00091E00E94620E80911E02853069F40E947A
:103EE000FF1A80911C028823B1F30E94341B88239F
:103EF00091F30E94FA1FEFCF0E94C90EECCF0C94F1
:103F0000811F292F332723303105C9F064F4213074
:103F1000310581F02230310509F04CC08BE390E08F
:103F20002AEE33E04BC02132310521F12232310536
:103F300089F140C082E190E025E234E03FC099275A
:103F40008130910571F02CF4892BA1F5E6EEF3E0B8
:103F50000DC08230910541F0039761F5E2EBF3E08B
:103F600005C0E6EDF3E002C0E8EBF3E0849190E0F9
:103F70009F0124C06115710541F061307105D1F4D4
:103F800089E090E025E134E019C089E090E02CEF71
:103F900033E014C06115710541F06130710551F4D1
:103FA00086E390E027E334E009C080E490E02DE66A
:103FB00034E004C080E090E020E030E0FA0131839A
:103FC000208308950895CF93C82F0E94E21FC093C5
:103FD000E701CF91089580911E02843011F081E0B5
:103FE000089582E008958091E701811102C00C9448
:103FF000EB1F089580E189BD82E189BD09B400FE0F
:10400000FDCF8091D8008F7D8093D8008091E00013
:1040100082608093E0008091E00081FDFCCF0895F4
:10402000CF92DF92EF92FF920F931F93CF93DF9384
:10403000EC018B016A010E947321811133C0C1140C
:10404000D10439F0F60180819181081B190BC80F4A
:10405000D91FE12CF12C0115110519F18091E8000F
:1040600085FD16C08091E8008E778093E800C1142A
:10407000D10449F0F60180819181E80EF91EF182A8
:10408000E08285E00FC00E947321882321F30AC0DB
:1040900089918093F10001501109FFEFEF1AFF0A97
:1040A000DACF80E0DF91CF911F910F91FF90EF90D9
:1040B000DF90CF9008952091250230912602261797
:1040C000370748F06115710539F42091E8002E7723
:1040D0002093E80001C0B90140E061157105A9F124
:1040E00020911E02222309F443C0253009F442C066
:1040F0002091E80023FD40C02091E80022FD32C05D
:104100002091E80020FFE9CF4091F3002091F200D8
:1041100030E0342BFC01CF016115710559F02830D6
:10412000310540F481918093F100615071092F5F56
:104130003F4FF1CF41E02830310509F040E02091B8
:10414000E8002E772093E800C8CF4111C9CF0AC0FC
:1041500080911E02882361F0853061F08091E80033
:1041600083FD0AC08091E80082FFF2CF80E00895CD
:1041700082E0089583E0089581E00895209125026A
:10418000309126022617370748F06115710539F47A
:104190002091E8002E772093E80001C0B901FC01CE
:1041A00020E06115710591F180911E02882309F4C8
:1041B00040C0853009F43FC08091E80083FD3DC0D8
:1041C0008091E80082FD2FC08091E80080FFE9CF58
:1041D0002091F3008091F20090E0922B611571051F
:1041E00059F08830910540F424912093F1003196E4
:1041F000615071090196F2CF21E0089709F020E0A3
:104200008091E8008E778093E800CBCF2111CCCF4E
:104210000AC080911E02882361F0853061F0809190
:10422000E80083FD0AC08091E80082FFF2CF80E0C1
:10423000089582E0089583E0089581E00895982F1D
:10424000973058F59093E900981739F07091EC0089
:104250002091ED005091F00003C0242F762F50E004
:1042600021FF19C03091EB003E7F3093EB0030917D
:10427000ED003D7F3093ED003091EB0031603093E5
:10428000EB007093EC002093ED005093F000209130
:10429000EE0027FF07C09F5FD3CF8F708093E900A8
:1042A00081E0089580E0089580911F0287FF11C08A
:1042B0008091E80082FD05C080911E028111F8CF37
:1042C00011C08091E8008B770BC080911E0288237B
:1042D00049F08091E80080FFF8CF8091E8008E7768
:1042E0008093E80008952091E4003091E50095E680
:1042F0004091EC00842F817040FF22C08091E80043
:1043000080FD1CC080911E02882391F0853091F0C1
:104310008091EB0085FD10C04091E4005091E500D4
:104320004217530729F39A01915011F784E0089539
:1043300082E0089583E0089581E0089580E0089583
:104340004091E80042FFDECF08950E9413220E94B0
:104350001B22E0EEF0E0808181608083E8EDF0E0F8
:1043600080818F77808319BCA7EDB0E08C918E7F20
:104370008C9380818F7E808310921D0208950F930D
:104380001F93CF93DF930E9413220E941B22C8ED3C
:10439000D0E088818F77888388818068888388814E
:1043A0008F7D888319BC10921E0210921A021092FF
:1043B0001C0210921B0200EE10E0F80180818B7F3E
:1043C000808388818160888342E060E080E00E9491
:1043D0001F21E1EEF0E080818E7F8083E2EEF0E04D
:1043E000808181608083808188608083F801808102
:1043F0008E7F8083888180618883DF91CF911F9138
:104400000F910895E8EDF0E080818F7E8083E7EDE5
:10441000F0E080818160808384E082BF81E08093CE
:104420001D020C94BF21E8EDF0E080818E7F808337
:104430001092E20008951092DA001092E1000895BF
:104440001F920F920FB60F9211242F933F934F9309
:104450005F936F937F938F939F93AF93BF93EF93EC
:10446000FF938091E10082FF0BC08091E20082FF08
:1044700007C08091E1008B7F8093E1000E9490242F
:104480008091DA0080FF1FC08091D80080FF1BC0A0
:104490008091DA008E7F8093DA008091D90080FFCE
:1044A0000DC080E189BD82E189BD09B400FEFDCF68
:1044B00081E080931E020E94681E05C019BC109204
:1044C0001E020E94761E8091E10080FF19C080913B
:1044D000E20080FF15C08091E2008E7F8093E200B1
:1044E0008091E20080618093E2008091D800806238
:1044F0008093D80019BC85E080931E020E947A1E2A
:104500008091E10084FF30C08091E20084FF2CC0E4
:1045100080E189BD82E189BD09B400FEFDCF8091B3
:10452000D8008F7D8093D8008091E1008F7E8093AA
:10453000E1008091E2008F7E8093E2008091E200B2
:1045400081608093E20080911A02882311F084E058
:1045500007C08091E30087FD02C081E001C083E0D5
:1045600080931E020E947B1E8091E10083FF29C080
:104570008091E20083FF25C08091E100877F8093D6
:10458000E10082E080931E0210921A028091E10005
:104590008E7F8093E1008091E2008E7F8093E20025
:1045A0008091E20080618093E20042E060E080E080
:1045B0000E941F218091F00088608093F0000E948B
:1045C000791EFF91EF91BF91AF919F918F917F9154
:1045D0006F915F914F913F912F910F900FBE0F9070
:1045E0001F9018951F920F920FB60F9211242F93C0
:1045F0003F934F935F936F937F938F939F93AF936B
:10460000BF93CF93DF93EF93FF93C091E900CF70F7
:104610008091EC00D82FD17080FDD0E81092E90095
:104620008091F000877F8093F00078940E94362379
:104630001092E9008091F00088608093F000CD2B0B
:10464000CF70C093E900FF91EF91DF91CF91BF91BF
:10465000AF919F918F917F916F915F914F913F911A
:104660002F910F900FBE0F901F9018951F93CF930F
:10467000DF93CDB7DEB7AA970FB6F894DEBF0FBEB3
:10468000CDBFEFE1F2E088E08E0F9091F1009193C1
:104690008E13FBCF0E94871E8091E80083FF28C104
:1046A00080911F0290912002492F50E04A3051051D
:1046B00008F01EC1FA01E556FF4F0C94062580381C
:1046C00021F0823809F014C108C080911B0290913A
:1046D0001C02992389F082600FC0809123028F70A1
:1046E000873008F005C18093E9008091EB0085FBDD
:1046F000882780F91092E9009091E800977F9093C5
:10470000E8008093F1001092F100D0C0282F2D7F97
:1047100009F0EEC0882319F0823061F0E9C0809181
:104720002102813009F0E4C0933009F080E08093E9
:104730001C022EC08091210281112AC08091230287
:104740008F702FEF280F263008F0D2C08093E90039
:104750002091EB0020FF1CC0933021F48091EB00EE
:10476000806214C09091EB0090619093EB0021E087
:1047700030E0A90102C0440F551F8A95E2F740932B
:10478000EA001092EA008091EB0088608093EB00D1
:104790001092E9008091E800877F8093E8000E94F2
:1047A0005421A6C08111A4C0109121021F778091CD
:1047B000E3008078812B8093E3008091E800877F7D
:1047C0008093E8000E9454218091E80080FFFCCF94
:1047D0008091E30080688093E300111102C082E0C1
:1047E00001C083E080931E0283C08058823008F0AD
:1047F0007FC080912102909122028C3D53E0950769
:1048000079F583E08A838AE289834FB7F894DE01E1
:10481000139620E03EE051E2E32FF0E05093570082
:10482000E49120FF03C0E295EF703F5FEF708E2FA1
:1048300090E0EA3010F0C79601C0C0968D939D932A
:104840002F5F243149F74FBF8091E800877F809325
:10485000E8006AE270E0CE0101960E945B2015C07C
:104860006091230270912402AE014F5F5F4F0E945E
:104870007F1FBC01892BE1F19091E800977F909315
:10488000E80089819A810E94BE208091E8008B77A0
:104890008093E8002DC0803859F58091E800877F2B
:1048A0008093E80080911A028093F1008091E800E3
:1048B0008E7773CF81111CC0909121029230C0F489
:1048C0008091E800877F8093E80090931A020E940D
:1048D000542180911A02811106C08091E30087FD66
:1048E00002C081E001C084E080931E020E947D1E10
:1048F0008091E80083FF0AC08091E800877F809361
:10490000E8008091EB0080628093EB00AA960FB6DE
:10491000F894DEBF0FBECDBFDF91CF911F910895F8
:104920000895CF9380911E028823A1F0C091E900E1
:10493000CF709091EC00892F817090FD80E8C82B9A
:104940001092E9008091E80083FD0E943623CF7029
:10495000C093E900CF910895DB018F939F930E944C
:104960001B25BF91AF91A29F800D911DA39F900D1C
:10497000B29F900D11240895AA1BBB1B51E107C0E3
:10498000AA1FBB1FA617B70710F0A61BB70B881FDF
:10499000991F5A95A9F780959095BC01CD0108956E
:1049A00097FB072E16F4009407D077FD09D00E94DC
:1049B000BC2407FC05D03EF4909581959F4F089547
:1049C000709561957F4F0895A1E21A2EAA1BBB1B1B
:1049D000FD010DC0AA1FBB1FEE1FFF1FA217B307CB
:1049E000E407F50720F0A21BB30BE40BF50B661FE1
:1049F000771F881F991F1A9469F7609570958095A5
:104A000090959B01AC01BD01CF010895EE0FFF1FF2
:104A10000590F491E02D0994A29FB001B39FC001CD
:104A2000A39F700D811D1124911DB29F700D811DDA
:104A30001124911D08950E940C25A59F900DB49FEF
:104A4000900DA49F800D911D11240895F999FECF1A
:104A500092BD81BDF89A992780B50895A6E1B0E08E
:104A600044E050E00C946025A8E1B0E042E050E062
:104A70000C946025262FF999FECF92BD81BDF89A3E
:104A8000019700B4021639F01FBA20BD0FB6F89492
:104A9000FA9AF99A0FBE08950396272F0E943B2594
:104AA0000E943A25252F0E943B25242F0C943B255C
:104AB0000196272F0E943B250C943A25DC01CB015F
:104AC000FC01F999FECF06C0F2BDE1BDF89A31961E
:104AD00000B40D9241505040B8F70895F894FFCFBC
:104AE0000145010146010547010CCF01C01D351EDE
:104AF000C31DFF1DC41D01F6F73133323697C6348E
:0A4B00009294000000000000010084
:00000001FF
